{
  "contractName": "Faucet",
  "abi": [
    {
      "inputs": [],
      "name": "numOffFunders",
      "outputs": [
        {
          "internalType": "uint256",
          "name": "",
          "type": "uint256"
        }
      ],
      "stateMutability": "view",
      "type": "function",
      "constant": true
    },
    {
      "inputs": [],
      "name": "owner",
      "outputs": [
        {
          "internalType": "address",
          "name": "",
          "type": "address"
        }
      ],
      "stateMutability": "view",
      "type": "function",
      "constant": true
    },
    {
      "stateMutability": "payable",
      "type": "receive",
      "payable": true
    },
    {
      "inputs": [],
      "name": "addFunds",
      "outputs": [],
      "stateMutability": "payable",
      "type": "function",
      "payable": true
    },
    {
      "inputs": [
        {
          "internalType": "uint256",
          "name": "withdrawAmount",
          "type": "uint256"
        }
      ],
      "name": "withdraw",
      "outputs": [],
      "stateMutability": "nonpayable",
      "type": "function"
    },
    {
      "inputs": [],
      "name": "getAllFunders",
      "outputs": [
        {
          "internalType": "address[]",
          "name": "",
          "type": "address[]"
        }
      ],
      "stateMutability": "view",
      "type": "function",
      "constant": true
    },
    {
      "inputs": [
        {
          "internalType": "uint8",
          "name": "index",
          "type": "uint8"
        }
      ],
      "name": "getFunderAtIndex",
      "outputs": [
        {
          "internalType": "address",
          "name": "",
          "type": "address"
        }
      ],
      "stateMutability": "view",
      "type": "function",
      "constant": true
    }
  ],
  "bytecode": "0x608060405234801561001057600080fd5b50336000806101000a81548173ffffffffffffffffffffffffffffffffffffffff021916908373ffffffffffffffffffffffffffffffffffffffff160217905550610854806100606000396000f3fe6080604052600436106100595760003560e01c80630a93cf33146100655780632e1a7d4d146100a25780636fbbb55d146100cb5780638da5cb5b146100f6578063a26759cb14610121578063ee1a567c1461012b57610060565b3661006057005b600080fd5b34801561007157600080fd5b5061008c600480360381019061008791906104af565b610156565b604051610099919061051d565b60405180910390f35b3480156100ae57600080fd5b506100c960048036038101906100c4919061056e565b610196565b005b3480156100d757600080fd5b506100e061022d565b6040516100ed9190610659565b60405180910390f35b34801561010257600080fd5b5061010b610327565b604051610118919061051d565b60405180910390f35b61012961034b565b005b34801561013757600080fd5b5061014061046b565b60405161014d919061068a565b60405180910390f35b6000600360008360ff16815260200190815260200160002060009054906101000a900473ffffffffffffffffffffffffffffffffffffffff169050919050565b80670de0b6b3a76400008111156101e2576040517f08c379a00000000000000000000000000000000000000000000000000000000081526004016101d990610728565b60405180910390fd5b3373ffffffffffffffffffffffffffffffffffffffff166108fc839081150290604051600060405180830381858888f19350505050158015610228573d6000803e3d6000fd5b505050565b6060600060015467ffffffffffffffff81111561024d5761024c610748565b5b60405190808252806020026020018201604052801561027b5781602001602082028036833780820191505090505b50905060005b60015481101561031f576003600082815260200190815260200160002060009054906101000a900473ffffffffffffffffffffffffffffffffffffffff168282815181106102d2576102d1610777565b5b602002602001019073ffffffffffffffffffffffffffffffffffffffff16908173ffffffffffffffffffffffffffffffffffffffff16815250508080610317906107d5565b915050610281565b508091505090565b60008054906101000a900473ffffffffffffffffffffffffffffffffffffffff1681565b6000339050600260008273ffffffffffffffffffffffffffffffffffffffff1673ffffffffffffffffffffffffffffffffffffffff16815260200190815260200160002060009054906101000a900460ff16610468576000600160008154809291906103b6906107d5565b9190505590506001600260008473ffffffffffffffffffffffffffffffffffffffff1673ffffffffffffffffffffffffffffffffffffffff16815260200190815260200160002060006101000a81548160ff021916908315150217905550816003600083815260200190815260200160002060006101000a81548173ffffffffffffffffffffffffffffffffffffffff021916908373ffffffffffffffffffffffffffffffffffffffff160217905550505b50565b60015481565b600080fd5b600060ff82169050919050565b61048c81610476565b811461049757600080fd5b50565b6000813590506104a981610483565b92915050565b6000602082840312156104c5576104c4610471565b5b60006104d38482850161049a565b91505092915050565b600073ffffffffffffffffffffffffffffffffffffffff82169050919050565b6000610507826104dc565b9050919050565b610517816104fc565b82525050565b6000602082019050610532600083018461050e565b92915050565b6000819050919050565b61054b81610538565b811461055657600080fd5b50565b60008135905061056881610542565b92915050565b60006020828403121561058457610583610471565b5b600061059284828501610559565b91505092915050565b600081519050919050565b600082825260208201905092915050565b6000819050602082019050919050565b6105d0816104fc565b82525050565b60006105e283836105c7565b60208301905092915050565b6000602082019050919050565b60006106068261059b565b61061081856105a6565b935061061b836105b7565b8060005b8381101561064c57815161063388826105d6565b975061063e836105ee565b92505060018101905061061f565b5085935050505092915050565b6000602082019050818103600083015261067381846105fb565b905092915050565b61068481610538565b82525050565b600060208201905061069f600083018461067b565b92915050565b600082825260208201905092915050565b7f43616e6e6f74207769746864726177206d6f7265207468616e2031206574686560008201527f7200000000000000000000000000000000000000000000000000000000000000602082015250565b60006107126021836106a5565b915061071d826106b6565b604082019050919050565b6000602082019050818103600083015261074181610705565b9050919050565b7f4e487b7100000000000000000000000000000000000000000000000000000000600052604160045260246000fd5b7f4e487b7100000000000000000000000000000000000000000000000000000000600052603260045260246000fd5b7f4e487b7100000000000000000000000000000000000000000000000000000000600052601160045260246000fd5b60006107e082610538565b91507fffffffffffffffffffffffffffffffffffffffffffffffffffffffffffffffff821415610813576108126107a6565b5b60018201905091905056fea264697066735822122059e4cc02891150dcc89ed17f322c77f7b48438ebc72a50ddcd0c2e722c6f8d1764736f6c634300080b0033",
  "immutableReferences": {},
  "source": "// SPDX-License-Identifier: MIT\npragma solidity >=0.4.22 <0.9.0;\nimport \"./Owned.sol\";\n// import \"./Logger.sol\";\nimport \"./IFaucet.sol\";\n\ncontract Faucet is Owned, IFaucet {\n    // storing address of all the users that are using addFunds()\n    uint256 public numOffFunders;\n\n    mapping(address => bool) private funders;\n    mapping(uint256 => address) private lutFunders; // look up table funders\n\n    modifier limitWithdraw(uint256 withdrawAmount) {\n        require(\n            withdrawAmount <= 1000000000000000000,\n            \"Cannot withdraw more than 1 ether\"\n        );\n        _;\n    }\n\n    receive() external payable {}\n\n    // function emitLog() public pure override returns (bytes32) {\n    //     return \"Faucet\";\n    // }\n\n    function addFunds() external payable override {\n        address funder = msg.sender;\n        // prevent duplicatation\n        if (!funders[funder]) {\n            uint256 index = numOffFunders++;\n            funders[funder] = true;\n            lutFunders[index] = funder;\n        }\n    }\n\n    function withdraw(uint256 withdrawAmount)\n        external\n        override\n        limitWithdraw(withdrawAmount)\n    {\n        payable(msg.sender).transfer(withdrawAmount);\n    }\n\n    function getAllFunders() external view returns (address[] memory) {\n        address[] memory _funders = new address[](numOffFunders);\n        for (uint256 i = 0; i < numOffFunders; i++) {\n            _funders[i] = lutFunders[i];\n        }\n        return _funders;\n    }\n\n    function getFunderAtIndex(uint8 index) external view returns (address) {\n        return lutFunders[index];\n    }\n}\n\n// const { ethers } = require('ethers');\n// const instance = await Faucet.deployed();\n// instance.addFunds({from: accounts[0], value: ethers.utils.parseEther('1')});\n// instance.addFunds({from: accounts[1], value: ethers.utils.parseEther('1')});\n// instance.withdraw(\"500000000000000000\", {from: accounts[1]});\n",
  "sourcePath": "/home/mohaiminuleraj/Documents/Project/Blockchain Project/ethereum-faucet/truffle/contracts/FaucetContract.sol",
  "compiler": {
    "name": "solc",
    "version": "0.8.11+commit.d7f03943.Emscripten.clang"
  },
  "schemaVersion": "3.4.6",
  "updatedAt": "2022-03-28T10:46:22.988Z",
  "networkType": "ethereum",
  "devdoc": {
    "kind": "dev",
    "methods": {},
    "version": 1
  },
  "userdoc": {
    "kind": "user",
    "methods": {},
    "version": 1
  }
}