{
  "contractName": "Faucet",
  "abi": [
    {
      "inputs": [],
      "name": "numOffFunders",
      "outputs": [
        {
          "internalType": "uint256",
          "name": "",
          "type": "uint256"
        }
      ],
      "stateMutability": "view",
      "type": "function"
    },
    {
      "inputs": [],
      "name": "owner",
      "outputs": [
        {
          "internalType": "address",
          "name": "",
          "type": "address"
        }
      ],
      "stateMutability": "view",
      "type": "function"
    },
    {
      "inputs": [],
      "name": "test",
      "outputs": [
        {
          "internalType": "uint256",
          "name": "",
          "type": "uint256"
        }
      ],
      "stateMutability": "pure",
      "type": "function"
    },
    {
      "inputs": [],
      "name": "testNum",
      "outputs": [
        {
          "internalType": "uint256",
          "name": "",
          "type": "uint256"
        }
      ],
      "stateMutability": "view",
      "type": "function"
    },
    {
      "stateMutability": "payable",
      "type": "receive"
    },
    {
      "inputs": [],
      "name": "emitLog",
      "outputs": [
        {
          "internalType": "bytes32",
          "name": "",
          "type": "bytes32"
        }
      ],
      "stateMutability": "pure",
      "type": "function"
    },
    {
      "inputs": [],
      "name": "addFunds",
      "outputs": [],
      "stateMutability": "payable",
      "type": "function"
    },
    {
      "inputs": [
        {
          "internalType": "uint256",
          "name": "withdrawAmount",
          "type": "uint256"
        }
      ],
      "name": "withdraw",
      "outputs": [],
      "stateMutability": "nonpayable",
      "type": "function"
    },
    {
      "inputs": [],
      "name": "getAllFunders",
      "outputs": [
        {
          "internalType": "address[]",
          "name": "",
          "type": "address[]"
        }
      ],
      "stateMutability": "view",
      "type": "function"
    },
    {
      "inputs": [
        {
          "internalType": "uint8",
          "name": "index",
          "type": "uint8"
        }
      ],
      "name": "getFunderAtIndex",
      "outputs": [
        {
          "internalType": "address",
          "name": "",
          "type": "address"
        }
      ],
      "stateMutability": "view",
      "type": "function"
    }
  ],
  "bytecode": "0x608060405234801561001057600080fd5b50336000806101000a81548173ffffffffffffffffffffffffffffffffffffffff021916908373ffffffffffffffffffffffffffffffffffffffff1602179055506103e8600181905550610971806100696000396000f3fe60806040526004361061008a5760003560e01c8063a26759cb11610059578063a26759cb14610152578063ae28f1ed1461015c578063ee1a567c14610187578063f42c13bf146101b2578063f8a8fd6d146101dd57610091565b80630a93cf33146100965780632e1a7d4d146100d35780636fbbb55d146100fc5780638da5cb5b1461012757610091565b3661009157005b600080fd5b3480156100a257600080fd5b506100bd60048036038101906100b89190610598565b610208565b6040516100ca9190610606565b60405180910390f35b3480156100df57600080fd5b506100fa60048036038101906100f59190610657565b610248565b005b34801561010857600080fd5b506101116102df565b60405161011e9190610742565b60405180910390f35b34801561013357600080fd5b5061013c6103d9565b6040516101499190610606565b60405180910390f35b61015a6103fd565b005b34801561016857600080fd5b5061017161051d565b60405161017e9190610773565b60405180910390f35b34801561019357600080fd5b5061019c610523565b6040516101a99190610773565b60405180910390f35b3480156101be57600080fd5b506101c7610529565b6040516101d491906107a7565b60405180910390f35b3480156101e957600080fd5b506101f2610551565b6040516101ff9190610773565b60405180910390f35b6000600460008360ff16815260200190815260200160002060009054906101000a900473ffffffffffffffffffffffffffffffffffffffff169050919050565b80670de0b6b3a7640000811115610294576040517f08c379a000000000000000000000000000000000000000000000000000000000815260040161028b90610845565b60405180910390fd5b3373ffffffffffffffffffffffffffffffffffffffff166108fc839081150290604051600060405180830381858888f193505050501580156102da573d6000803e3d6000fd5b505050565b6060600060025467ffffffffffffffff8111156102ff576102fe610865565b5b60405190808252806020026020018201604052801561032d5781602001602082028036833780820191505090505b50905060005b6002548110156103d1576004600082815260200190815260200160002060009054906101000a900473ffffffffffffffffffffffffffffffffffffffff1682828151811061038457610383610894565b5b602002602001019073ffffffffffffffffffffffffffffffffffffffff16908173ffffffffffffffffffffffffffffffffffffffff168152505080806103c9906108f2565b915050610333565b508091505090565b60008054906101000a900473ffffffffffffffffffffffffffffffffffffffff1681565b6000339050600360008273ffffffffffffffffffffffffffffffffffffffff1673ffffffffffffffffffffffffffffffffffffffff16815260200190815260200160002060009054906101000a900460ff1661051a57600060026000815480929190610468906108f2565b9190505590506001600360008473ffffffffffffffffffffffffffffffffffffffff1673ffffffffffffffffffffffffffffffffffffffff16815260200190815260200160002060006101000a81548160ff021916908315150217905550816004600083815260200190815260200160002060006101000a81548173ffffffffffffffffffffffffffffffffffffffff021916908373ffffffffffffffffffffffffffffffffffffffff160217905550505b50565b60015481565b60025481565b60007f4661756365740000000000000000000000000000000000000000000000000000905090565b60006064905090565b600080fd5b600060ff82169050919050565b6105758161055f565b811461058057600080fd5b50565b6000813590506105928161056c565b92915050565b6000602082840312156105ae576105ad61055a565b5b60006105bc84828501610583565b91505092915050565b600073ffffffffffffffffffffffffffffffffffffffff82169050919050565b60006105f0826105c5565b9050919050565b610600816105e5565b82525050565b600060208201905061061b60008301846105f7565b92915050565b6000819050919050565b61063481610621565b811461063f57600080fd5b50565b6000813590506106518161062b565b92915050565b60006020828403121561066d5761066c61055a565b5b600061067b84828501610642565b91505092915050565b600081519050919050565b600082825260208201905092915050565b6000819050602082019050919050565b6106b9816105e5565b82525050565b60006106cb83836106b0565b60208301905092915050565b6000602082019050919050565b60006106ef82610684565b6106f9818561068f565b9350610704836106a0565b8060005b8381101561073557815161071c88826106bf565b9750610727836106d7565b925050600181019050610708565b5085935050505092915050565b6000602082019050818103600083015261075c81846106e4565b905092915050565b61076d81610621565b82525050565b60006020820190506107886000830184610764565b92915050565b6000819050919050565b6107a18161078e565b82525050565b60006020820190506107bc6000830184610798565b92915050565b600082825260208201905092915050565b7f43616e6e6f74207769746864726177206d6f7265207468616e2031206574686560008201527f7200000000000000000000000000000000000000000000000000000000000000602082015250565b600061082f6021836107c2565b915061083a826107d3565b604082019050919050565b6000602082019050818103600083015261085e81610822565b9050919050565b7f4e487b7100000000000000000000000000000000000000000000000000000000600052604160045260246000fd5b7f4e487b7100000000000000000000000000000000000000000000000000000000600052603260045260246000fd5b7f4e487b7100000000000000000000000000000000000000000000000000000000600052601160045260246000fd5b60006108fd82610621565b91507fffffffffffffffffffffffffffffffffffffffffffffffffffffffffffffffff8214156109305761092f6108c3565b5b60018201905091905056fea264697066735822122076136b2ff4ba7046db84118c532f433156ed8cebf167ac8cd3e85b08b942594d64736f6c634300080b0033",
  "immutableReferences": {},
  "source": "// SPDX-License-Identifier: MIT\npragma solidity >=0.4.22 <0.9.0;\nimport \"./Owned.sol\";\nimport \"./Logger.sol\";\nimport \"./IFaucet.sol\";\n\ncontract Faucet is Owned, Logger, IFaucet {\n    // storing address of all the users that are using addFunds()\n    uint256 public numOffFunders;\n\n    mapping(address => bool) private funders;\n    mapping(uint256 => address) private lutFunders; // look up table funders\n\n    modifier limitWithdraw(uint256 withdrawAmount) {\n        require(\n            withdrawAmount <= 1000000000000000000,\n            \"Cannot withdraw more than 1 ether\"\n        );\n        _;\n    }\n\n    receive() external payable {}\n\n    function emitLog() public pure override returns (bytes32) {\n        return \"Faucet\";\n    }\n\n    function addFunds() external payable override {\n        address funder = msg.sender;\n        // prevent duplicatation\n        if (!funders[funder]) {\n            uint256 index = numOffFunders++;\n            funders[funder] = true;\n            lutFunders[index] = funder;\n        }\n    }\n\n    function withdraw(uint256 withdrawAmount)\n        external\n        override\n        limitWithdraw(withdrawAmount)\n    {\n        payable(msg.sender).transfer(withdrawAmount);\n    }\n\n    function getAllFunders() external view returns (address[] memory) {\n        address[] memory _funders = new address[](numOffFunders);\n        for (uint256 i = 0; i < numOffFunders; i++) {\n            _funders[i] = lutFunders[i];\n        }\n        return _funders;\n    }\n\n    function getFunderAtIndex(uint8 index) external view returns (address) {\n        return lutFunders[index];\n    }\n}\n\n// const { ethers } = require('ethers');\n// const instance = await Faucet.deployed();\n// instance.withdraw(\"500000000000000000\", {from: accounts[1]});\n// instance.addFunds({from: accounts[0], value: ethers.utils.parseEther('1')});\n// instance.addFunds({from: accounts[1], value: ethers.utils.parseEther('1')});\n",
  "sourcePath": "/home/mohaiminuleraj/Documents/Project/Blockchain Project/ethereum-faucet/truffle/contracts/FaucetContract.sol",
  "compiler": {
    "name": "solc",
    "version": "0.8.11+commit.d7f03943.Emscripten.clang"
  },
  "schemaVersion": "3.4.5",
  "updatedAt": "2022-03-24T10:08:15.663Z",
  "devdoc": {
    "kind": "dev",
    "methods": {},
    "version": 1
  },
  "userdoc": {
    "kind": "user",
    "methods": {},
    "version": 1
  }
}